:020000040800F2
:1000000000500020FD1C0008F91A0008FF1A000823
:10001000051B00080B1B0008111B00080000000056
:10002000000000000000000000000000171B000896
:10003000231B0008000000002F1B00083B1B0008CA
:10004000451D0008451D0008451D0008451D000808
:10005000451D0008451D0008451D0008451D0008F8
:10006000451D0008451D0008451D0008451D0008E8
:10007000451D0008451D0008451D0008451D0008D8
:10008000451D0008451D0008451D0008451D0008C8
:10009000491B0008451D0008451D0008451D0008B6
:1000A000451D0008451D0008451D0008451D0008A8
:1000B000451D0008451D0008451D0008451D000898
:1000C000451D0008451D0008451D0008451D000888
:1000D000451D00085D1B0008451D0008451D000862
:1000E000451D0008451D0008451D000800000000D2
:1000F0000000000000000000000000000000000000
:0C01000000000000000000005FF808F1A3
:1001100010B5054C237833B9044B13B10448AFF341
:1001200000800123237010BD500300200000000058
:100130007007010808B5034B1BB103490348AFF32F
:10014000008008BD00000000540300207007010873
:10015000034613F8012B002AFBD1181A0138704707
:1001600081F0004102E000BF83F0004330B54FEA68
:1001700041044FEA430594EA050F08BF90EA020FD5
:100180001FBF54EA000C55EA020C7FEA645C7FEA68
:10019000655C00F0E2804FEA5454D4EB5555B8BF8B
:1001A0006D420CDD2C4480EA020281EA030382EAFC
:1001B000000083EA010180EA020281EA0303362D8E
:1001C00088BF30BD11F0004F4FEA01314FF4801C61
:1001D0004CEA113102D0404261EB410113F0004F73
:1001E0004FEA03334CEA133302D0524263EB43032A
:1001F00094EA050F00F0A780A4F10104D5F1200EC8
:100200000DDB02FA0EFC22FA05F2801841F1000122
:1002100003FA0EF2801843FA05F359410EE0A5F1F6
:1002200020050EF1200E012A03FA0EFC28BF4CF027
:10023000020C43FA05F3C01851EBE37101F00045DD
:1002400007D54FF0000EDCF1000C7EEB00006EEBEA
:100250000101B1F5801F1BD3B1F5001F0CD3490874
:100260005FEA30004FEA3C0C04F101044FEA4452CB
:1002700012F5800F80F09A80BCF1004F08BF5FEA52
:10028000500C50F1000041EB045141EA050130BD32
:100290005FEA4C0C404141EB0101013C28BFB1F544
:1002A000801FE9D291F0000F04BF01460020B1FA8F
:1002B00081F308BF2033A3F10B03B3F120020CDA62
:1002C0000C3208DD02F1140CC2F10C0201FA0CF040
:1002D00021FA02F10CE002F11402D8BFC2F1200CA5
:1002E00001FA02F120FA0CFCDCBF41EA0C0190405B
:1002F000E41AA2BF01EB0451294330BD6FEA0404A4
:100300001F3C1CDA0C340EDC04F11404C4F120028E
:1003100020FA04F001FA02F340EA030021FA04F3A0
:1003200045EA030130BDC4F10C04C4F1200220FAF7
:1003300002F001FA04F340EA0300294630BD21FA35
:1003400004F0294630BD94F0000F83F4801306BFFB
:1003500081F480110134013D4EE77FEA645C18BFEF
:100360007FEA655C29D094EA050F08BF90EA020F86
:1003700005D054EA000C04BF1946104630BD91EA7E
:10038000030F1EBF0021002030BD5FEA545C05D181
:100390004000494128BF41F0004130BD14F58004C0
:1003A0003CBF01F5801130BD01F0004545F0FE4134
:1003B00041F470014FF0000030BD7FEA645C1ABF69
:1003C000194610467FEA655C1CBF0B46024650EAA0
:1003D000013406BF52EA033591EA030F41F40021CC
:1003E00030BD00BF90F0000F04BF0021704730B552
:1003F0004FF4806404F132044FF000054FF0000127
:1004000050E700BF90F0000F04BF0021704730B5E7
:100410004FF4806404F1320410F0004548BF4042BC
:100420004FF000013EE700BF42004FEAE2014FEA11
:1004300031014FEA02701FBF12F07F4393F07F4FEC
:1004400081F06051704732F07F4208BF704793F0EF
:100450007F4F04BF41F40021704730B54FF4607402
:1004600001F0004521F000411CE700BF50EA010205
:1004700008BF704730B54FF000050AE050EA0102AE
:1004800008BF704730B511F0004502D5404261EB1E
:1004900041014FF4806404F132045FEA915C3FF45F
:1004A000D8AE4FF003025FEADC0C18BF03325FEAFC
:1004B000DC0C18BF033202EBDC02C2F1200300FAAD
:1004C00003FC20FA02F001FA03FE40EA0E0021FAD2
:1004D00002F11444BDE600BF70B54FF0FF0C4CF4C0
:1004E000E06C1CEA11541DBF1CEA135594EA0C0F72
:1004F00095EA0C0F00F0DEF82C4481EA030621EAAD
:100500004C5123EA4C5350EA013518BF52EA0335E7
:1005100041F4801143F4801338D0A0FB02CE4FF099
:100520000005E1FB02E506F00042E0FB03E54FF0C9
:100530000006E1FB03569CF0000F18BF4EF0010EC1
:10054000A4F1FF04B6F5007F64F5407404D25FEABD
:100550004E0E6D4146EB060642EAC62141EA555170
:100560004FEAC52040EA5E504FEACE2EB4F1FD0CB2
:1005700088BFBCF5E06F1ED8BEF1004F08BF5FEA30
:10058000500E50F1000041EB045170BD06F00046E2
:1005900046EA010140EA020081EA0301B4EB5C048F
:1005A000C2BFD4EB0C0541EA045170BD41F4801187
:1005B0004FF0000E013C00F3AB8014F1360FDEBFAC
:1005C000002001F0004170BDC4F10004203C35DA88
:1005D0000C341BDC04F11404C4F1200500FA05F30B
:1005E00020FA04F001FA05F240EA020001F00042AC
:1005F00021F0004110EBD37021FA04F642EB060122
:100600005EEA430E08BF20EAD37070BDC4F10C044B
:10061000C4F1200500FA04F320FA05F001FA04F20F
:1006200040EA020001F0004110EBD37041F10001FB
:100630005EEA430E08BF20EAD37070BDC4F1200506
:1006400000FA05F24EEA020E20FA04F301FA05F26E
:1006500043EA020321FA04F001F0004121FA04F216
:1006600020EA020000EBD3705EEA430E08BF20EAE6
:10067000D37070BD94F0000F0FD101F00046400020
:1006800041EB010111F4801F08BF013CF7D041EAA2
:10069000060195F0000F18BF704703F000465200A6
:1006A00043EB030313F4801F08BF013DF7D043EA77
:1006B0000603704794EA0C0F0CEA135518BF95EA2D
:1006C0000C0F0CD050EA410618BF52EA4306D1D1B4
:1006D00081EA030101F000414FF0000070BD50EAD3
:1006E000410606BF1046194652EA430619D094EA5D
:1006F0000C0F02D150EA013613D195EA0C0F05D147
:1007000052EA03361CBF104619460AD181EA03019A
:1007100001F0004141F0FE4141F470014FF0000052
:1007200070BD41F0FE4141F4780170BD70B54FF0ED
:10073000FF0C4CF4E06C1CEA11541DBF1CEA13556D
:1007400094EA0C0F95EA0C0F00F0A7F8A4EB05044F
:1007500081EA030E52EA03354FEA013100F0888046
:100760004FEA03334FF0805545EA131343EA12630F
:100770004FEA022245EA111545EA10654FEA0026C4
:100780000EF000419D4208BF964244F1FD0404F57D
:10079000407402D25B084FEA3202B61A65EB0305D9
:1007A0005B084FEA32024FF480104FF4002CB6EB96
:1007B000020E75EB030E22BFB61A754640EA0C0016
:1007C0005B084FEA3202B6EB020E75EB030E22BF56
:1007D000B61A754640EA5C005B084FEA3202B6EB97
:1007E000020E75EB030E22BFB61A754640EA9C0056
:1007F0005B084FEA3202B6EB020E75EB030E22BF26
:10080000B61A754640EADC0055EA060E18D04FEAE3
:10081000051545EA16754FEA06164FEAC30343EA83
:1008200052734FEAC2025FEA1C1CC0D111F4801F50
:100830000BD141EA00014FF000004FF0004CB6E749
:1008400011F4801F04BF01430020B4F1FD0C88BFE8
:10085000BCF5E06F3FF6AFAEB5EB030C04BFB6EBF3
:10086000020C5FEA500C50F1000041EB045170BDE6
:100870000EF0004E4EEA113114EB5C04C2BFD4EB13
:100880000C0541EA045170BD41F480114FF0000E97
:10089000013C90E645EA060E8DE60CEA135594EA13
:1008A0000C0F08BF95EA0C0F3FF43BAF94EA0C0F16
:1008B0000AD150EA01347FF434AF95EA0C0F7FF48B
:1008C00025AF104619462CE795EA0C0F06D152EADF
:1008D00003353FF4FDAE1046194622E750EA4106C3
:1008E00018BF52EA43067FF4C5AE50EA41047FF4D4
:1008F0000DAF52EA43057FF4EBAE12E74FF0FF3C39
:1009000006E000BF4FF0010C02E000BF4FF0010C09
:100910004DF804CD4FEA410C7FEA6C5C4FEA430C82
:1009200018BF7FEA6C5C1BD001B050EA410C0CBFD1
:1009300052EA430C91EA030F02BF90EA020F002033
:10094000704710F1000F91EA030F58BF994208BF9A
:1009500090422CBFD8176FEAE37040F00100704757
:100960004FEA410C7FEA6C5C02D150EA013C07D1AE
:100970004FEA430C7FEA6C5CD6D152EA033CD3D0F9
:100980005DF8040B704700BF8446104662468C46F3
:100990001946634600E000BF01B5FFF7B7FF002826
:1009A00048BF10F1000F01BD4DF808EDFFF7F4FF4F
:1009B0000CBF012000205DF808FB00BF4DF808EDDA
:1009C000FFF7EAFF34BF012000205DF808FB00BFFD
:1009D0004DF808EDFFF7E0FF94BF012000205DF81F
:1009E00008FB00BF4DF808EDFFF7CEFF94BF0120D4
:1009F00000205DF808FB00BF4DF808EDFFF7C4FFCD
:100A000034BF012000205DF808FB00BF4FEA410C15
:100A10007FEA6C5C02D150EA013C0AD14FEA430CF8
:100A20007FEA6C5C02D152EA033C02D14FF0000035
:100A300070474FF0010070474FEA410212F5001273
:100A400015D211D56FF47873B3EB625212D94FEA15
:100A5000C12343F0004343EA505311F0004F23FAFF
:100A600002F018BF404270474FF00000704750EA54
:100A7000013005D111F0004008BF6FF00040704711
:100A80004FF00000704700BF4A0011D212F500126B
:100A900011D20DD56FF47873B3EB62520ED44FEAD6
:100AA000C12343F0004343EA505323FA02F0704756
:100AB0004FF00000704750EA013002D14FF0FF3094
:100AC00070474FF0000070474FEA4102B2F1E04337
:100AD00024BFB3F5001CDCF1FE5C0DD901F0004C25
:100AE0004FEAC0024CEA5070B2F1004F40EB830075
:100AF00008BF20F00100704711F0804F21D113F1A1
:100B00003872BCBF01F00040704741F480114FEAD9
:100B10005252C2F11802C2F1200C10FA0CF320FA62
:100B200002F018BF40F001004FEAC1234FEAD3237F
:100B300003FA0CFC40EA0C0023FA02F34FEA4303E9
:100B4000CCE77FEA625307D150EA01331EBF4FF072
:100B5000FE4040F44000704701F0004040F0FE408D
:100B600040F40000704700BF80F0004002E000BF8A
:100B700081F0004142001FBF5FEA410392EA030F88
:100B80007FEA226C7FEA236C6AD04FEA1262D2EBD2
:100B90001363C1BFD218414048404140B8BF5B42D7
:100BA000192B88BF704710F0004F40F4000020F070
:100BB0007F4018BF404211F0004F41F4000121F086
:100BC0007F4118BF494292EA030F3FD0A2F10102D0
:100BD00041FA03FC10EB0C00C3F1200301FA03F10E
:100BE00000F0004302D5494260EB4000B0F5000F31
:100BF00013D3B0F1807F06D340084FEA310102F1F0
:100C00000102FE2A51D2B1F1004F40EBC25008BFA1
:100C100020F0010040EA03007047490040EB00006B
:100C2000013A28BFB0F5000FEDD2B0FA80FCACF16C
:100C3000080CB2EB0C0200FA0CF0AABF00EBC25099
:100C400052421843BCBFD0401843704792F0000F87
:100C500081F4000106BF80F400000132013BB5E7DA
:100C60004FEA41037FEA226C18BF7FEA236C21D050
:100C700092EA030F04D092F0000F08BF08467047B5
:100C800090EA010F1CBF0020704712F07F4F04D183
:100C9000400028BF40F00040704712F100723CBF96
:100CA00000F50000704700F0004343F0FE4040F4C0
:100CB000000070477FEA226216BF08467FEA23637E
:100CC0000146420206BF5FEA412390EA010F40F469
:100CD000800070474FF0000304E000BF10F00043B5
:100CE00048BF40425FEA000C08BF704743F096439C
:100CF00001464FF000001CE050EA010208BF7047B7
:100D00004FF000030AE000BF50EA010208BF70473D
:100D100011F0004302D5404261EB41015FEA010C52
:100D200002BF84460146002043F0B64308BFA3F14A
:100D30008053A3F50003BCFA8CF2083AA3EBC2532C
:100D400010DB01FA02FC634400FA02FCC2F120024B
:100D5000BCF1004F20FA02F243EB020008BF20F082
:100D60000100704702F1200201FA02FCC2F12002E8
:100D700050EA4C0021FA02F243EB020008BF20EADD
:100D8000DC7070474FF0FF0C1CEAD0521EBF1CEA0B
:100D9000D15392EA0C0F93EA0C0F6FD01A4480EAF9
:100DA000010C400218BF5FEA41211ED04FF00063E2
:100DB00043EA501043EA5111A0FB01310CF000400E
:100DC000B1F5000F3EBF490041EAD3715B0040EA34
:100DD000010062F17F02FD2A1DD8B3F1004F40EB04
:100DE000C25008BF20F00100704790F0000F0CF0D7
:100DF000004C08BF49024CEA502040EA51207F3A9B
:100E0000C2BFD2F1FF0340EAC250704740F4000075
:100E10004FF00003013A5DDC12F1190FDCBF00F066
:100E200000407047C2F10002410021FA02F1C2F114
:100E3000200200FA02FC5FEA310040F1000053EAB0
:100E40004C0308BF20EADC70704792F0000F00F0FE
:100E5000004C02BF400010F4000F013AF9D040EA04
:100E60000C0093F0000F01F0004C02BF490011F498
:100E7000000F013BF9D041EA0C018FE70CEAD15396
:100E800092EA0C0F18BF93EA0C0F0AD030F0004C16
:100E900018BF31F0004CD8D180EA010000F00040CA
:100EA000704790F0000F17BF90F0004F084691F088
:100EB000000F91F0004F14D092EA0C0F01D14202C2
:100EC0000FD193EA0C0F03D14B0218BF084608D18B
:100ED00080EA010000F0004040F0FE4040F40000D5
:100EE000704740F0FE4040F4400070474FF0FF0C68
:100EF0001CEAD0521EBF1CEAD15392EA0C0F93EAAF
:100F00000C0F69D0A2EB030280EA010C49024FEA00
:100F1000402037D04FF0805343EA111143EA1013B9
:100F20000CF000408B4238BF5B0042F17D024FF471
:100F3000000C8B4224BF5B1A40EA0C00B3EB510F4C
:100F400024BFA3EB510340EA5C00B3EB910F24BF35
:100F5000A3EB910340EA9C00B3EBD10F24BFA3EBBA
:100F6000D10340EADC001B0118BF5FEA1C1CE0D182
:100F7000FD2A3FF650AF8B4240EBC25008BF20F035
:100F8000010070470CF0004C4CEA50207F32C2BF89
:100F9000D2F1FF0340EAC250704740F400004FF026
:100FA0000003013A37E792F0000F00F0004C02BF57
:100FB000400010F4000F013AF9D040EA0C0093F021
:100FC000000F01F0004C02BF490011F4000F013B7B
:100FD000F9D041EA0C0195E70CEAD15392EA0C0FE3
:100FE00008D142027FF47DAF93EA0C0F7FF470AF1B
:100FF000084676E793EA0C0F04D14B023FF44CAF5E
:1010000008466EE730F0004C18BF31F0004CCAD1F2
:1010100030F000427FF45CAF31F000437FF43CAF2E
:101020005FE700BF38B505460C460022002328467E
:101030002146FFF7C3FC28B928462146BDE83840C1
:1010400000F00AB8284604F1004100F005F84042DB
:1010500061EB410138BD00BFD0B500220B4B064605
:101060000F46FFF739FAFFF70FFD0446FFF7BAF90D
:101070000022074BFFF730FA02460B46304639464E
:10108000FFF772F8FFF700FD2146D0BD0000F03DEC
:101090000000F04180B500AF01F004FD01224FF4E3
:1010A00000711C4802F0E2F8642001F05DFD0022AE
:1010B0004FF40071174802F0D9F8642001F054FD94
:1010C00001224FF40071134802F0D0F800F024F828
:1010D00000F016F900F07AF800F0E8F80AF0B4F938
:1010E00000F088F800F0B4F800F056F900F02EFA9D
:1010F00000220221074802F0B9F8642001F034FD13
:1011000001220221034802F0B1F8642001F02CFD15
:10111000EEE700BF000C014080B594B000AF07F1CE
:1011200028032822002118460AF0C4FE07F1140300
:1011300000221A605A609A60DA601A613B1D002230
:101140001A605A609A60DA600123BB624FF4803300
:10115000FB6200233B630123BB6302237B644FF4E8
:101160008033BB644FF4E013FB6407F12803184697
:1011700004F086FE0346002B01D000F091FB0F2304
:101180007B610223BB610023FB614FF480633B6200
:1011900000237B6207F114030221184605F0F2F8E0
:1011A0000346002B01D000F07BFB10237B60002363
:1011B0003B613B1D184605F07DFA0346002B01D02C
:1011C00000F06EFB00BF5037BD4680BD80B500AF5C
:1011D000064B074A1A60054801F0F7FD0346002B4D
:1011E00001D000F05DFB00BF80BD00BF6C0300209C
:1011F0000030024080B500AF124B134A1A60114B09
:10120000124A5A600F4B00229A600E4B0022DA609D
:101210000C4B4FF480421A610A4B00225A61094B71
:1012200000229A61074B0022DA61064B00221A6203
:10123000044802F033F80346002B01D000F030FBE5
:1012400000BF80BD7403002000540040A086010050
:1012500080B500AF124B134A1A60114B124A5A6004
:101260000F4B00229A600E4B0022DA600C4B4FF4B9
:1012700080421A610A4B00225A61094B00229A618E
:10128000074B0022DA61064B00221A62044802F082
:1012900005F80346002B01D000F002FB00BF80BD23
:1012A000C803002000580040A086010080B500AFB0
:1012B000114B124A1A60104B4FF4E1325A600E4B38
:1012C00000229A600C4B0022DA600B4B00221A615C
:1012D000094B0C225A61084B00229A61064B0022EE
:1012E000DA61054805F09CFA0346002B01D000F0B6
:1012F000D7FA00BF80BD00BF1C04002000380140A9
:1013000080B588B000AF07F1100300221A605A6060
:101310009A60DA601E4B9B691D4A43F0200393617B
:101320001B4B9B6903F02003FB60FB68184B9B6918
:10133000174A43F008039361154B9B6903F00803B8
:10134000BB60BB68124B9B69114A43F00403936175
:101350000F4B9B6903F004037B607B68002240F223
:1013600002210C4801F082FF40F202233B6101237D
:101370007B610023BB610223FB6107F11003194667
:10138000044801F0EFFD00BF2037BD4680BD00BF1F
:1013900000100240000C014080B59AB000AF01225D
:1013A0000221614801F062FFC82001F0DDFB00224C
:1013B00002215D4801F05AFF3B465C4A6321184612
:1013C0000BF0F2FB034687F8663097F866309AB266
:1013D00039466423564805F070FA012387F86730D0
:1013E0003DE097F867309BB25B0099B2022302227E
:1013F000504802F0F9FB03461A464F4B1A704E4B09
:101400001B78002B10D03B464C4A632118460BF04A
:10141000CBFB034687F8663097F866309AB23946B8
:101420006423434805F049FA434B1B78002B11D144
:1014300097F867303846424A63210BF0B5FB034604
:1014400087F8663097F866309AB239466423384890
:1014500005F033FA97F86730013387F8673097F96A
:101460006730002BBDDA3B46364A632118460BF045
:101470009BFB034687F8663097F866309AB2394688
:1014800064232B4805F019FAC82001F06DFB0123F5
:1014900087F867303DE097F867309BB25B0099B200
:1014A00002230222284802F09FFB03461A46224BE1
:1014B0001A70214B1B78002B10D03B461F4A63212A
:1014C00018460BF071FB034687F8663097F86630D4
:1014D0009AB239466423164805F0EFF9164B1B788B
:1014E000002B11D197F867303846154A63210BF06D
:1014F0005BFB034687F8663097F866309AB2394648
:1015000064230B4805F0D9F997F86730013387F861
:10151000673097F96730002BBDDAC82001F024FB53
:1015200000BF6837BD4680BD000C01408807010838
:101530001C0400207403002078080020980701088C
:101540009C070108A4070108C80300202DE9F04307
:101550008DB006AF0023FB75A44BBB60A44BFB60B2
:10156000A44B3B610A2001F0FFFA07F10803A249EE
:10157000184601F003F9A04B1B786B2B00D0FEE757
:1015800007F108030121184601F009F907F10803E2
:101590009A49184601F029F9984B1B78002BF5D190
:1015A00007F108030121184601F09CF807F1080330
:1015B0000121184600F06CFF07F1080303211846CB
:1015C00000F060FC07F108030321184600F0F0FD6D
:1015D00007F108030021184600F02EFC07F108036C
:1015E0000121184600F0BEFD07F10803042118464A
:1015F00001F03AF907F108030121184601F00EF94C
:10160000FB7D1A4602217E4801F030FEFB7D002B57
:101610000CBF01230023DBB2FB75142001F0A4FAF8
:10162000FA1D07F108031146184600F057FFFB7931
:10163000002B51D00622002172480AF03BFC07F132
:1016400008037049184601F002F86E4BB3F90030F8
:10165000184600F0A9FB03466B4A1360694BB3F9C7
:101660000230184600F0A0FB0346674A5360654B02
:10167000B3F90430184600F097FB0346624A9360C2
:1016800001F068FA0646604B1B681846FEF7CCFE70
:1016900004460D465C4B5B681846FEF7C5FE804667
:1016A0008946594B9B681846FEF7BEFE02460B461C
:1016B000CDE90423CDE90289CDE9004532465349FD
:1016C00053480BF0A5FA5248FEF742FD03469BB281
:1016D00019464F4809F0D8FFFA1D07F108031146D3
:1016E000184600F014FFFB79002B4DD00622002194
:1016F00048480AF0DFFB07F108034649184600F0A6
:101700005BFF444BB3F90030184600F063FB03461F
:10171000414A13603F4BB3F90230184600F05AFBC0
:1017200003463D4A53603B4BB3F90430184600F082
:1017300051FB0346384A9360374B1B681846FEF747
:1017400073FE80468946344B5B681846FEF76CFE94
:1017500004460D46304B9B681846FEF765FE024670
:101760000B46CDE90223CDE9004542464B462B49C5
:1017700027480BF04DFA2648FEF7EAFC03469BB2D9
:101780001946234809F080FFFA1D07F108031146A6
:10179000184600F0D5FEFB79002B3FF431AF204B0B
:1017A00000221A8007F108031D49184600F0E1FEE7
:1017B0001B4BB3F90030184600F022FB0346194AD0
:1017C0001360184B1B681846FEF72EFE02460B46A8
:1017D00015490F480BF01CFA0D48FEF7B9FC0346FB
:1017E0009BB219460A4809F04FFF09E72D18000877
:1017F00067180008C80300208C0400208D04002016
:10180000000C01406004002070040020B4070108AF
:1018100090040020680400207C040020D007010808
:101820006E04002088040020E407010880B588B019
:1018300004AFF8607A601A460B46FB7213463B8190
:10184000FB7A9AB24FF47A7302933B8901937B68D7
:1018500000930123D721F86801F064FE00231846A5
:101860001037BD4680BD80B588B004AFF8607A609F
:101870001A460B46FB7213463B81FB7A9AB24FF431
:101880007A7302933B8901937B6800930123D721EC
:10189000F86801F041FF002318461037BD4680BDAF
:1018A00080B500AF01F056F903461A4608490948C9
:1018B0000BF0AEF90748FEF74BFC03469BB2194606
:1018C000044809F0E1FE4FF4FA7001F04DF9E9E740
:1018D000F00701089004002080B485B000AF154BDC
:1018E0009B69144A43F001039361124B9B6903F017
:1018F0000103BB60BB680F4BDB690E4A43F08053AA
:10190000D3610C4BDB6903F080537B607B680A4B2F
:101910005B68FB60FB6823F0E063FB60FB6843F0FF
:101920000073FB60044AFB68536000BF1437BD4678
:1019300080BC7047001002400000014080B485B0B8
:1019400000AF78607B681B68094A93420BD1094B52
:101950005B69084A43F040035361064B5B6903F03F
:101960004003FB60FB6800BF1437BD4680BC704776
:10197000003002400010024080B58AB000AF7860AD
:1019800007F1180300221A605A609A60DA607B68D7
:101990001B682B4A934224D12A4B9B69294A43F066
:1019A00008039361274B9B6903F008037B617B6904
:1019B000C023BB611223FB6103237B6207F1180381
:1019C0001946214801F0CEFA1E4BDB691D4A43F44B
:1019D0000013D3611B4BDB6903F400133B613B69CC
:1019E00029E07B681B68194A934224D1154B9B69F7
:1019F000144A43F008039361124B9B6903F00803F8
:101A0000FB60FB684FF44063BB611223FB6103235F
:101A10007B6207F1180319460B4801F0A3FA094B42
:101A2000DB69084A43F48003D361064BDB6903F4A6
:101A30008003BB60BB6800BF2837BD4680BD00BFC8
:101A40000054004000100240000C014000580040CB
:101A500080B588B000AF786007F1100300221A60EB
:101A60005A609A60DA607B681B68204A934239D1D9
:101A70001F4B9B691E4A43F4804393611C4B9B6937
:101A800003F48043FB60FB68194B9B69184A43F0E1
:101A900004039361164B9B6903F00403BB60BB68AE
:101AA0004FF400733B6102237B610323FB6107F169
:101AB000100319460F4801F055FA4FF480633B615B
:101AC00000237B610023BB6107F11003194609481D
:101AD00001F048FA00220021252001F040F92520DC
:101AE00001F059F900BF2037BD4680BD00380140E4
:101AF000001002400008014080B400AFFEE780B44F
:101B000000AFFEE780B400AFFEE780B400AFFEE7B1
:101B100080B400AFFEE780B400AF00BFBD4680BC1C
:101B2000704780B400AF00BFBD4680BC704780B432
:101B300000AF00BFBD4680BC704780B500AF00F06D
:101B4000F7FF00BF80BD000080B500AF024802F083
:101B500004FE00BF80BD00BF9015002080B500AF1F
:101B6000024804F03DFF00BF80BD00BF1C04002000
:101B700080B400AF01231846BD4680BC704780B5D5
:101B800082B000AF786039600AF05CF90346162233
:101B90001A604FF0FF3318460837BD4680BD80B548
:101BA00082B000AF78604FF0FF317868FFF7E7FF51
:101BB000FEE780B586B000AFF860B9607A600023B8
:101BC0007B610AE0AFF300800146BB685A1CBA6033
:101BD000CAB21A707B6901337B617A697B689A4269
:101BE000F0DB7B6818461837BD4680BD80B586B0EF
:101BF00000AFF860B9607A6000237B6109E0BB68E0
:101C00005A1CBA601B781846AFF300807B69013319
:101C10007B617A697B689A42F1DB7B6818461837EA
:101C2000BD4680BD80B483B000AF78604FF0FF3315
:101C300018460C37BD4680BC704780B483B000AFF7
:101C4000786039603B684FF400525A6000231846B0
:101C50000C37BD4680BC704780B483B000AF78605D
:101C6000012318460C37BD4680BC704780B485B050
:101C700000AFF860B9607A60002318461437BD469B
:101C800080BC704780B586B000AF7860144A154BB1
:101C9000D31A7B617B693B61134B1B68002B02D11C
:101CA000114B124A1A60104B1A687B6813443A6948
:101CB0009A4207D20AF0C6F803460C221A604FF087
:101CC000FF3309E0084B1B68FB60074B1A687B6811
:101CD0001344054A1360FB6818461837BD4680BD9B
:101CE00000500020000400007C080020B01A0020F2
:101CF00080B400AF00BFBD4680BC70470C480D49A2
:101D00000D4A002302E0D458C4500433C4188C4256
:101D1000F9D30A4A0A4C002301E013600432A242BC
:101D2000FBD3FFF7E5FF0AF093F8FFF7B3F970472D
:101D30000000002050030020340D01085003002053
:101D4000AC1A0020FEE790B587B000AFF8607A606B
:101D50001A460B46FB7213463B81FB685C68FB68C6
:101D600098683B89F97A7A68A04778617B69184658
:101D70001C37BD4690BD90B587B000AFF8607A6063
:101D80001A460B46FB7213463B81FB681C68FB68D6
:101D900098683B89F97A7A68A04778617B69184628
:101DA0001C37BD4690BD000080B582B000AF034631
:101DB000FB80B7F906301846FEF790FF034604494A
:101DC0001846FEF7DFFF034618460837BD4680BDBC
:101DD00023DB793D80B582B000AF0346FB80B7F9C5
:101DE00006301846FEF77AFF034604491846FEF708
:101DF000C9FF034618460837BD4680BD00008C4227
:101E000080B582B000AF0346FB80B7F906301846B4
:101E1000FEF764FF03464FF087411846FFF766F868
:101E2000034604491846FEF7A5FE03461846083740
:101E3000BD4680BD0000C84180B584B000AF786069
:101E40000B46FB7007F10802012310217868FFF7A9
:101E50007AFFF860FB68002B0FD1FB7803F00303D7
:101E6000DAB23B7A62F383033B7207F10802012383
:101E700010217868FFF77FFFF860FB68184610377D
:101E8000BD4680BD80B586B000AF78600B46FB7064
:101E9000FB78FB7507F10C031946786800F01CFD10
:101EA00038613B69002B40F0C4803B7BC3F30003E7
:101EB000DAB23B7BC3F34003DBB21343DAB23B7BC2
:101EC000C3F38003DBB21343DAB23B7BC3F3C0033B
:101ED000DBB21343DAB23B7BC3F30013DBB2134331
:101EE000DAB23B7BC3F34013DBB21343DAB23B7B82
:101EF000C3F38013DBB21343DAB23B7BC3F3C013EB
:101F0000DBB21343DAB27B7BC3F30003DBB21343D0
:101F1000DAB27B7BC3F34003DBB21343DAB27B7BE1
:101F2000C3F38003DBB21343DAB27B7BC3F3C0039A
:101F3000DBB21343DAB27B7BC3F30013DBB2134390
:101F4000DAB27B7BC3F34013DBB21343DAB27B7BA1
:101F5000C3F38013DBB21343DAB27B7BC3F3C0134A
:101F6000DBB21343DBB2012B63D107F10B0319463C
:101F7000786800F0DDFC38613B69002B59D1FB7AB1
:101F8000032B53D801A252F823F000BF9D1F000875
:101F9000AF1F0008CD1F0008F71F0008FB78002BBB
:101FA00002D10123FB7545E0FB78FB7542E0FB782D
:101FB000002B02D10223FB753CE0FB78012B02D100
:101FC0000223FB7536E0FB78FB7533E0FB78002BD2
:101FD00002D10323FB752DE0FB78012B02D10323F3
:101FE000FB7527E0FB78022B02D10323FB7521E070
:101FF000FB78FB751EE0FB78002B02D10423FB75F8
:1020000018E0FB78012B02D10423FB7512E0FB786A
:10201000022B02D10423FB750CE0FB78032B02D1C9
:102020000423FB7506E0FB78FB7503E0FB78FB758A
:1020300000E000BF0023BB723B69002B6DD107F1AC
:102040000A031946786800F0BBFC3861BB7A012BA3
:1020500063D107F109031946786800F0DBFC3861A9
:102060003B69002B59D17B7A032B53D801A252F83C
:1020700023F000BF8520000897200008B520000845
:10208000DF200008FB78002B02D10123FB7545E01F
:10209000FB78FB7542E0FB78002B02D10223FB7535
:1020A0003CE0FB78012B02D10223FB7536E0FB7884
:1020B000FB7533E0FB78002B02D10323FB752DE089
:1020C000FB78012B02D10323FB7527E0FB78022B61
:1020D00002D10323FB7521E0FB78FB751EE0FB7842
:1020E000002B02D10423FB7518E0FB78012B02D1F1
:1020F0000423FB7512E0FB78022B02D10423FB754D
:102100000CE0FB78032B02D10423FB7506E0FB787F
:10211000FB7503E0FB78FB7500E000BF3B69002B1B
:1021200007D107F10802012310217868FFF70BFEA1
:1021300038613B69002B0FD1FB7D03F00F03DAB24E
:102140003B7A62F307133B7207F108020123102167
:102150007868FFF710FE38613B6918461837BD46AE
:1021600080BD00BF80B584B000AF78600B46FB70C7
:1021700007F10802012311217868FFF7E4FDF860F8
:10218000FB68002B0FD1FB7803F00F03DAB23B7A28
:1021900062F303033B7207F10802012311217868FF
:1021A000FFF7E9FDF860FB6818461037BD4680BDB3
:1021B00080B586B000AF78600B46FB70FB78FB758E
:1021C00007F10C031946786800F086FB38613B691B
:1021D000002B40F0C4803B7BC3F30003DAB23B7BAF
:1021E000C3F34003DBB21343DAB23B7BC3F3800398
:1021F000DBB21343DAB23B7BC3F3C003DBB213435E
:10220000DAB23B7BC3F30013DBB21343DAB23B7B9E
:10221000C3F34013DBB21343DAB23B7BC3F3801347
:10222000DBB21343DAB23B7BC3F3C013DBB213431D
:10223000DAB27B7BC3F30003DBB21343DAB27B7BFE
:10224000C3F34003DBB21343DAB27B7BC3F38003F7
:10225000DBB21343DAB27B7BC3F3C003DBB21343BD
:10226000DAB27B7BC3F30013DBB21343DAB27B7BBE
:10227000C3F34013DBB21343DAB27B7BC3F38013A7
:10228000DBB21343DAB27B7BC3F3C013DBB213437D
:10229000DBB2012B63D107F10B031946786800F01C
:1022A00047FB38613B69002B59D1FB7A032B53D88C
:1022B00001A252F823F000BFC9220008DB22000867
:1022C000F922000823230008FB78002B02D1012308
:1022D000FB7545E0FB78FB7542E0FB78002B02D1F3
:1022E0000223FB753CE0FB78012B02D10223FB7536
:1022F00036E0FB78FB7533E0FB78002B02D103233B
:10230000FB752DE0FB78012B02D10323FB7527E041
:10231000FB78022B02D10323FB7521E0FB78FB75D0
:102320001EE0FB78002B02D10423FB7518E0FB783C
:10233000012B02D10423FB7512E0FB78022B02D1A2
:102340000423FB750CE0FB78032B02D10423FB75FF
:1023500006E0FB78FB7503E0FB78FB7500E000BF4F
:102360000023BB723B69002B6DD107F10A031946AC
:10237000786800F025FB3861BB7A012B63D107F147
:1023800009031946786800F045FB38613B69002B6A
:1023900059D17B7A032B53D801A252F823F000BF06
:1023A000B1230008C3230008E12300080B24000820
:1023B000FB78002B02D10123FB7545E0FB78FB7510
:1023C00042E0FB78002B02D10223FB753CE0FB7856
:1023D000012B02D10223FB7536E0FB78FB7533E05D
:1023E000FB78002B02D10323FB752DE0FB78012B3A
:1023F00002D10323FB7527E0FB78022B02D10323D4
:10240000FB7521E0FB78FB751EE0FB78002B02D109
:102410000423FB7518E0FB78012B02D10423FB7524
:1024200012E0FB78022B02D10423FB750CE0FB7851
:10243000032B02D10423FB7506E0FB78FB7503E058
:10244000FB78FB7500E000BF3B69002B07D107F16B
:102450000802012311217868FFF775FC38613B6998
:10246000002B0FD1FB7D03F00F03DAB23B7A62F34E
:1024700007133B7207F10802012311217868FFF767
:102480007AFC38613B6918461837BD4680BD00BFED
:1024900080B584B000AF78600B46FB7007F108028E
:1024A000012312217868FFF74EFCF860FB68002BCF
:1024B0000FD1FB7803F00103DAB23B7A62F38613A3
:1024C0003B7207F10802012312217868FFF753FCE1
:1024D000F860FB6818461037BD4680BD80B584B0F3
:1024E00000AF7860396007F1080201231E21786887
:1024F000FFF729FCF8603B7AC3F30003DBB21A460E
:102500003B681A70FB6818461037BD4680BD80B521
:1025100084B000AF7860396007F1080201231E2102
:102520007868FFF710FCF8603B7AC3F34003DBB236
:102530001A463B681A70FB6818461037BD4680BDC6
:1025400080B584B000AF7860396007F108020123DC
:102550001E217868FFF7F7FBF8603B7AC3F380032E
:10256000DBB21A463B681A70FB6818461037BD4646
:1025700080BD80B584B000AF7860396007F1080293
:10258000022320217868FFF7DEFBF8607B7A1AB21D
:102590003B681A803B68B3F900309BB21B029AB2C9
:1025A0003B7A9BB213449BB21AB23B681A80FB6819
:1025B00018461037BD4680BD80B586B000AF786044
:1025C000396007F10C02062322217868FFF7BBFB74
:1025D00078617B7B1AB23B681A803B68B3F90030A4
:1025E0009BB21B029AB23B7B9BB213449BB21AB2C2
:1025F0003B681A80FA7B3B68023312B21A803B6850
:102600000233B3F900309BB21B029AB2BB7B9BB280
:1026100013449AB23B68023312B21A807A7C3B6848
:10262000043312B21A803B680433B3F900309BB212
:102630001B029AB23B7C9BB213449AB23B680433B0
:1026400012B21A807B6918461837BD4680BD80B526
:1026500086B000AF7860396007F10C0206232821AC
:102660007868FFF770FB78617B7B1AB23B681A8051
:102670003B68B3F900309BB21B029AB23B7B9BB222
:1026800013449BB21AB23B681A80FA7B3B68023350
:1026900012B21A803B680233B3F900309BB21B02BE
:1026A0009AB2BB7B9BB213449AB23B68023312B21C
:1026B0001A807A7C3B68043312B21A803B68043378
:1026C000B3F900309BB21B029AB23B7C9BB213441D
:1026D0009AB23B68043312B21A807B6918461837E5
:1026E000BD4680BD80B584B000AF78600B46FB70FE
:1026F00007F10802012318217868FFF724FBF8602E
:10270000FB68002B0FD1FB7803F00103DAB23B7AB0
:1027100062F341033B7207F1080201231821786834
:10272000FFF729FBF860FB6818461037BD4680BDEF
:1027300080B584B000AF78600B46FB7007F10802EB
:10274000012301217868FFF7FEFAF860FB68002B8F
:102750000FD1FB7803F00303DAB23B7A62F38713FD
:102760003B7207F10802012301217868FFF703FBA0
:10277000F860FB6818461037BD4680BD80B584B050
:1027800000AF7860396001233A680F217868FFF75D
:10279000DAFAF860FB6818461037BD4680BD80B590
:1027A00084B000AF78600B46FB7007F1080201238C
:1027B00012217868FFF7C7FAF860FB68002B0FD189
:1027C000FB7803F00103DAB23B7A62F300033B7259
:1027D00007F10802012312217868FFF7CCFAF860AC
:1027E000FB6818461037BD4680BD80B584B000AF89
:1027F0007860396007F10802012312217868FFF739
:10280000A2FAF8603B7AC3F30003DBB21A463B68D6
:102810001A70FB6818461037BD4680BD80B584B07D
:1028200000AF78600B46FB7007F10802012310210E
:102830007868FFF788FAF860FB68002B0FD1FB7807
:1028400003F00103DAB23B7A62F341033B7207F112
:102850000802012310217868FFF78DFAF860FB6801
:1028600018461037BD4680BD80B584B000AF786093
:102870000B46FB7007F10802012317217868FFF768
:1028800062FAF860FB68002B21D1FB781B0903F08A
:102890000103DAB23B7A62F382033B72FB785B0995
:1028A00003F00103DAB23B7A62F304133B72FB7864
:1028B00003F00703DAB23B7A62F347133B7207F186
:1028C0000802012317217868FFF755FAF860FB68C2
:1028D00018461037BD4680BD80B584B000AF786023
:1028E000396002217868FFF723FFF860FB68002B4E
:1028F00006D13A68012346217868FFF724FAF86088
:10290000FB68002B07D13B685A1C012347217868DC
:10291000FFF719FAF860FB68002B04D100217868F2
:10292000FFF706FFF860FB6818461037BD4680BD0C
:1029300080B584B000AF7860396002217868FFF715
:10294000F7FEF860FB68002B07D107F108020123AE
:102950005F217868FFF7F7F9F860FB68002B04D176
:1029600000217868FFF7E4FEF8603B7AC3F3C10307
:10297000DBB2032B1AD801A252F823F08D290008EC
:10298000952900089D290008A52900083B68002218
:102990001A700FE03B6801221A700BE03B680222BC
:1029A0001A7007E03B6803221A7003E03B680022BC
:1029B0001A7000BFFB6818461037BD4680BD00BFC7
:1029C00080B584B000AF7860396002217868FFF785
:1029D000AFFEF860FB68002B07D107F10802012366
:1029E00005217868FFF7AFF9F860FB68002B0BD181
:1029F00000217868FFF79CFEF8603B7AC3F3001370
:102A0000DBB21A463B681A70FB6818461037BD46A1
:102A100080BD000080B584B000AF786039600221CD
:102A20007868FFF785FEF860FB68002B07D107F197
:102A30000802012360217868FFF785F9F860FB68D8
:102A4000002B2AD13B7AC3F30113DBB2032B1BD833
:102A500001A252F823F000BF692A0008712A000879
:102A6000792A0008812A00083B6800221A700FE0CA
:102A70003B6801221A700BE03B6802221A7007E0E3
:102A80003B6803221A7003E03B6800221A7000BF03
:102A900000217868FFF74CFEF860FB681846103795
:102AA000BD4680BD80B500AF084B1B68074A43F0A8
:102AB00010031360032000F047F90F2000F008F81E
:102AC000FEF70AFF0023184680BD00BF0020024029
:102AD00080B582B000AF7860124B1A68124B1B7839
:102AE00019464FF47A73B3FBF1F3B2FBF3F31846D4
:102AF00000F05FF90346002B01D001230EE07B6854
:102B00000F2B0AD8002279684FF0FF3000F027F928
:102B1000064A7B681360002300E00123184608374B
:102B2000BD4680BD000000200800002004000020F9
:102B300080B400AF054B1B781A46054B1B68134445
:102B4000034A136000BFBD4680BC704708000020E8
:102B50008008002080B400AF024B1B681846BD46B9
:102B600080BC70478008002080B584B000AF7860DA
:102B7000FFF7F0FFB8607B68FB60FB68B3F1FF3FD5
:102B800005D00A4B1B781A46FB681344FB6000BF54
:102B9000FFF7E0FF0246BB68D31AFA689A42F7D8FB
:102BA00000BF00BF1037BD4680BD00BF0800002039
:102BB00080B485B000AF78607B6803F00703FB60EA
:102BC0000C4BDB68BB60BA684FF6FF031340BB6079
:102BD000FB681A02BB68134343F0BF6343F400333E
:102BE000BB60044ABB68D36000BF1437BD4680BCDD
:102BF000704700BF00ED00E080B400AF044BDB681D
:102C00001B0A03F007031846BD4680BC704700BF8F
:102C100000ED00E080B483B000AF0346FB7197F98C
:102C20000730002B0BDBFB7903F01F02064997F9F5
:102C300007305B09012000FA02F241F8232000BFAF
:102C40000C37BD4680BC704700E100E080B483B023
:102C500000AF03463960FB7197F90730002B0ADBA0
:102C60003B68DAB20C4997F907301201D2B20B4433
:102C700083F800230AE03B68DAB20849FB7903F0E5
:102C80000F03043B1201D2B20B441A7600BF0C377B
:102C9000BD4680BC704700BF00E100E000ED00E0F1
:102CA00080B489B000AFF860B9607A60FB6803F067
:102CB0000703FB61FB69C3F10703042B28BF04234F
:102CC000BB61FB690433062B02D9FB69033B00E0BF
:102CD00000237B614FF0FF32BB6902FA03F3DA4352
:102CE000BB681A407B699A404FF0FF317B6901FA5B
:102CF00003F3D9437B680B40134318462437BD4682
:102D000080BC704780B582B000AF78607B68013BC3
:102D1000B3F1807F01D301230FE00A4A7B68013BB6
:102D200053600F214FF0FF30FFF790FF054B00225B
:102D30009A60044B07221A60002318460837BD46E4
:102D400080BD00BF10E000E080B582B000AF7860C9
:102D50007868FFF72DFF00BF0837BD4680BD80B5FE
:102D600086B000AF0346B9607A60FB7300237B61D5
:102D7000FFF742FF78617A68B9687869FFF790FFDA
:102D8000024697F90F3011461846FFF75FFF00BF64
:102D90001837BD4680BD80B582B000AF0346FB71D9
:102DA00097F907301846FFF735FF00BF0837BD46D3
:102DB00080BD80B582B000AF78607868FFF7A2FF71
:102DC000034618460837BD4680BD80B582B000AFC7
:102DD00078607B68002B01D101230EE07B685B7972
:102DE000DBB2002B05D17B6800221A717868FEF7F0
:102DF000A5FD7B6801225A71002318460837BD469D
:102E000080BD80B485B000AF78600023FB737B6821
:102E100093F82130022B08D07B6804229A637B68E8
:102E2000002283F82020012320E07B681B681A68B9
:102E30007B681B6822F00E021A607B681B681A68A8
:102E40007B681B6822F001021A607B681A6C7B6841
:102E5000DB6B012101FA02F25A607B68012283F8E0
:102E600021207B68002283F82020FB7B1846143742
:102E7000BD4680BC7047000080B584B000AF78606C
:102E80000023FB737B6893F82130022B05D07B680D
:102E900004229A630123FB7351E07B681B681A6864
:102EA0007B681B6822F00E021A607B681B681A6838
:102EB0007B681B6822F001021A607B681B68224A4B
:102EC000934229D07B681B68204A934222D07B68BA
:102ED0001B681F4A93421AD07B681B681D4A9342A5
:102EE00012D07B681B681C4A93420AD07B681B681F
:102EF0001A4A934202D14FF480130EE04FF08073D0
:102F00000BE04FF4803308E04FF4805305E04FF4BA
:102F1000807302E0102300E00123114A53607B68B4
:102F2000012283F821207B68002283F820207B681F
:102F30005B6B002B03D07B685B6B78689847FB7BEF
:102F400018461037BD4680BD080002401C000240F4
:102F50003000024044000240580002406C00024031
:102F60000000024080B48BB000AF7860396000236D
:102F70007B6200233B6269E101227B6A02FA03F370
:102F8000FB613B681B68FA691340BB61BA69FB6966
:102F90009A4240F058813B685B689A4A93425ED0FF
:102FA000984A934275D8984A934258D0964A934289
:102FB0006FD8964A934252D0944A934269D8944A21
:102FC00093424CD0924A934263D8924A934246D05D
:102FD000904A93425DD8122B2AD8122B59D801A2BD
:102FE00052F823F05F300008393000084B300008F9
:102FF0008D300008933000089330000893300008AB
:103000009330000893300008933000089330000894
:103010009330000893300008933000089330000884
:103020009330000893300008413000085530000804
:10303000794A934213D02CE03B68DB683B6229E07D
:103040003B68DB6804333B6224E03B68DB680833A1
:103050003B621FE03B68DB680C333B621AE03B6875
:103060009B68002B02D104233B6213E03B689B6802
:10307000012B05D108233B627B68FA691A6109E0DC
:1030800008233B627B68FA695A6103E000233B62D4
:1030900000E000BFBB69FF2B01D87B6801E07B68C3
:1030A00004337B61BB69FF2B02D87B6A9B0002E083
:1030B0007B6A083B9B003B617B691A680F213B6977
:1030C00001FA03F3DB431A40396A3B6901FA03F35F
:1030D0001A437B691A603B685B6803F08053002BDE
:1030E00000F0B1804D4B9B694C4A43F00103936162
:1030F0004A4B9B6903F00103BB60BB68484A7B6A8B
:103100009B08023352F82330FB607B6A03F0030311
:103110009B000F2202FA03F3DB43FA681340FB60C3
:103120007B68404A934213D07B683F4A93420DD05C
:103130007B683E4A934207D07B683D4A934201D167
:10314000032306E0042304E0022302E0012300E05D
:1031500000237A6A02F0030292009340FA68134354
:10316000FB602F497B6A9B080233FA6841F82320F1
:103170003B685B6803F48033002B06D02D4B1A6844
:103180002C49BB6913430B6006E02A4B1A68BB69E4
:10319000DB43284913400B603B685B6803F4003352
:1031A000002B06D0234B5A682249BB6913434B605E
:1031B00006E0204B5A68BB69DB431E4913404B6055
:1031C0003B685B6803F48013002B06D0194B9A68A8
:1031D0001849BB6913438B6006E0164B9A68BB69BC
:1031E000DB43144913408B603B685B6803F40013B6
:1031F000002B21D00F4BDA680E49BB691343CB601B
:1032000021E000BF00003210000031100000221049
:1032100000002110000012100000111000100240E8
:103220000000014000080140000C01400010014076
:1032300000140140000401400B4BDA68BB69DB431A
:1032400009491340CB607B6A01337B623B681A6893
:103250007B6A22FA03F3002B7FF48EAE00BF00BF1F
:103260002C37BD4680BC70470004014080B483B059
:1032700000AF78600B467B8013467B707B78002B19
:1032800003D07A887B681A6103E07B881A047B6824
:103290001A6100BF0C37BD4680BC704780B584B052
:1032A00000AF78607B68002B01D101232BE17B68A4
:1032B00093F83D30DBB2002B06D17B68002283F807
:1032C0003C207868FEF758FB7B68242283F83D2079
:1032D0007B681B681A687B681B6822F001021A6011
:1032E0007B681B681A687B681B6842F400421A609E
:1032F0007B681B681A687B681B6822F400421A60AE
:1033000003F092F9F8607B685B68814A934207D8C2
:10331000FB68804A934294BF01230023DBB206E09E
:10332000FB687D4A934294BF01230023DBB2002B4C
:1033300001D00123E7E0FB68784AA2FB03239B0C42
:10334000BB607B681B685B6823F03F017B681B6880
:10335000BA680A435A607B681B681B6A23F03F0106
:103360007B685B686A4A934202D8BB68013309E014
:10337000BB684FF4967202FB03F3694AA2FB032376
:103380009B0901337A6812680B4313627B681B68E0
:10339000DB6923F44F4222F0FF027B685B685C49E3
:1033A0008B4219D8FB68591E7B685B685B00B1FBD8
:1033B000F3F3591C40F6FC730B40002B0AD0FB685A
:1033C000591E7B685B685B00B1FBF3F30133C3F309
:1033D0000B0351E004234FE07B689B68002B11D165
:1033E000FB68581E7B6859680B465B000B44B0FBBA
:1033F000F3F30133C3F30B03002B0CBF01230023B2
:10340000DBB212E0FB68581E7B6859680B469B00D4
:103410000B4499000B44B0FBF3F30133C3F30B03EC
:10342000002B0CBF01230023DBB2002B01D00123B2
:1034300022E07B689B68002B0ED1FB68581E7B68DE
:1034400059680B465B000B44B0FBF3F30133C3F345
:103450000B0343F400430FE0FB68581E7B68596878
:103460000B469B000B4499000B44B0FBF3F3013374
:10347000C3F30B0343F44043796809681343CB61FA
:103480007B681B681B6823F0C0017B68DA697B6876
:103490001B6A1A437B681B680A431A607B681B68B7
:1034A0009B6823F4034323F0FF037A6811697A6869
:1034B000D26811437A6812680B4393607B681B687B
:1034C000DB6823F0FF017B685A697B689B691A43BC
:1034D0007B681B680A43DA607B681B681A687B6834
:1034E0001B6842F001021A607B6800221A647B6844
:1034F000202283F83D207B6800221A637B6800222B
:1035000083F83E20002318461037BD4680BD00BF1B
:10351000A08601007F841E00FF083D0083DE1B4360
:10352000D34D621080B588B002AFF86008461146EE
:103530001A4603467B810B463B811346FB80FFF70F
:1035400009FB7861FB6893F83D30DBB2202B40F03B
:10355000D9807B690093192301226D49F86800F036
:10356000EFFD0346002B01D00223CCE0FB6893F86B
:103570003C30012B01D10223C5E0FB68012283F816
:103580003C20FB681B681B6803F00103012B07D07C
:10359000FB681B681A68FB681B6842F001021A602E
:1035A000FB681B681A68FB681B6822F400621A60DB
:1035B000FB68212283F83D20FB68402283F83E20EF
:1035C000FB6800221A64FB683A6A5A62FB68BA8C8C
:1035D0005A85FB685B8D9AB2FB681A85FB684D4A79
:1035E000DA62F8883A8979897B690193BB6A00932A
:1035F0000346F86800F026FC0346002B52D0012356
:1036000081E07A69B96AF86800F070FE0346002B21
:103610000DD0FB681B6C042B07D1FB681B681A6874
:10362000FB681B6842F400721A6001236BE0FB68C0
:103630005B6A1A78FB681B681A61FB685B6A5A1C34
:10364000FB685A62FB681B8D013B9AB2FB681A85C6
:10365000FB685B8D9BB2013B9AB2FB685A85FB68A5
:103660001B685B6903F00403042B1BD1FB681B8DF3
:10367000002B17D0FB685B6A1A78FB681B681A611D
:10368000FB685B6A5A1CFB685A62FB681B8D013B36
:103690009AB2FB681A85FB685B8D9BB2013B9AB2BC
:1036A000FB685A85FB681B8D002BAAD17A69B96A21
:1036B000F86800F05CFE0346002B0DD0FB681B6C25
:1036C000042B07D1FB681B681A68FB681B6842F46F
:1036D00000721A60012316E0FB681B681A68FB6819
:1036E0001B6842F400721A60FB68202283F83D20B8
:1036F000FB68002283F83E20FB68002283F83C2010
:10370000002300E0022318461837BD4680BD00BFE5
:10371000020010000000FFFF80B58CB002AFF8601F
:10372000084611461A4603467B810B463B811346E9
:10373000FB8000233B62FFF70DFA7862FB6893F889
:103740003D30DBB2202B40F044827B6A009319238A
:1037500001228249F86800F0F3FC0346002B01D0F7
:10376000022337E2FB6893F83C30012B01D102239E
:1037700030E2FB68012283F83C20FB681B681B6871
:1037800003F00103012B07D0FB681B681A68FB6874
:103790001B6842F001021A60FB681B681A68FB682C
:1037A0001B6822F400621A60FB68222283F83D2025
:1037B000FB68402283F83E20FB6800221A64FB6805
:1037C0003A6B5A62FB68BA8E5A85FB685B8D9AB277
:1037D000FB681A85FB68624ADA62F8883A89798957
:1037E0007B6A0193BB6B00930346F86800F0C0FB53
:1037F0000346002B01D00123ECE1FB681B8D002B5D
:1038000013D10023FB61FB681B685B69FB61FB68EC
:103810001B689B69FB61FB69FB681B681A68FB6896
:103820001B6842F400721A60C0E1FB681B8D012B1B
:103830001ED1FB681B681A68FB681B6822F4806253
:103840001A6072B600BF0023BB61FB681B685B692E
:10385000BB61FB681B689B69BB61BB69FB681B683C
:103860001A68FB681B6842F400721A6062B635E0A1
:10387000FB681B8D022B1ED1FB681B681A68FB6856
:103880001B6842F400621A6072B600BF00237B61BD
:10389000FB681B685B697B61FB681B689B697B61DC
:1038A0007B69FB681B681A68FB681B6822F48062EE
:1038B0001A6062B612E0FB681B681A68FB681B6836
:1038C00042F480621A6000233B61FB681B685B69FD
:1038D0003B61FB681B689B693B613B6966E1FB6878
:1038E0001B8D032B00F21F81FB681B8D012B23D145
:1038F0007A6AB96BF86800F07BFD0346002B01D0B3
:10390000012367E1FB681B681A69FB685B6AD2B236
:103910001A70FB685B6A5A1CFB685A62FB681B8D55
:10392000013B9AB2FB681A85FB685B8D9BB2013B39
:103930009AB2FB685A8539E1FB681B8D022B52D184
:103940007B6A0093BB6B00220649F86800F0F8FB25
:103950000346002B08D001233CE100BF0200100009
:103960000000FFFF0400010072B600BFFB681B6887
:103970001A68FB681B6842F400721A60FB681B68D7
:103980001A69FB685B6AD2B21A70FB685B6A5A1CE0
:10399000FB685A62FB681B8D013B9AB2FB681A8573
:1039A000FB685B8D9BB2013B9AB2FB685A8562B69D
:1039B00000BFFB681B681A69FB685B6AD2B21A70A9
:1039C000FB685B6A5A1CFB685A62FB681B8D013BF3
:1039D0009AB2FB681A85FB685B8D9BB2013B9AB279
:1039E000FB685A85E2E07B6A0093BB6B00227B494F
:1039F000F86800F0A5FB0346002B01D00123E9E0A5
:103A0000FB681B681A68FB681B6822F480621A60F6
:103A100072B600BFFB681B681A69FB685B6AD2B2AA
:103A20001A70FB685B6A5A1CFB685A62FB681B8D44
:103A3000013B9AB2FB681A85FB685B8D9BB2013B28
:103A40009AB2FB685A85664B1B68DB08654AA2FB85
:103A500003231A0A13469B001344DA00D31A3B626D
:103A60003B6A013B3B623B6A002B18D1FB6800229A
:103A70001A63FB68202283F83D20FB68002283F84C
:103A80003E20FB681B6C43F02002FB681A6462B6A0
:103A900000BFFB68002283F83C2001239AE0FB680A
:103AA0001B685B6903F00403042BD9D1FB681B6816
:103AB0001A68FB681B6842F400721A60FB681B6896
:103AC0001A69FB685B6AD2B21A70FB685B6A5A1C9F
:103AD000FB685A62FB681B8D013B9AB2FB681A8532
:103AE000FB685B8D9BB2013B9AB2FB685A8562B65C
:103AF00000BFFB681B681A69FB685B6AD2B21A7068
:103B0000FB685B6A5A1CFB685A62FB681B8D013BB1
:103B10009AB2FB681A85FB685B8D9BB2013B9AB237
:103B2000FB685A8542E07A6AB96BF86800F060FC7D
:103B30000346002B01D001234CE0FB681B681A6987
:103B4000FB685B6AD2B21A70FB685B6A5A1CFB683E
:103B50005A62FB681B8D013B9AB2FB681A85FB68B1
:103B60005B8D9BB2013B9AB2FB685A85FB681B6870
:103B70005B6903F00403042B18D1FB681B681A6906
:103B8000FB685B6AD2B21A70FB685B6A5A1CFB68FE
:103B90005A62FB681B8D013B9AB2FB681A85FB6871
:103BA0005B8D9BB2013B9AB2FB685A85FB681B8D0B
:103BB000002B7FF494AEFB68202283F83D20FB6845
:103BC000002283F83E20FB68002283F83C2000237B
:103BD00000E0022318462837BD4680BD04000100DE
:103BE0000000002089B5F81480B58AB002AFF860F3
:103BF0007A603B600B467B81FEF7ACFFF8610123E6
:103C0000BB61FB6893F83D30DBB2202B40F01181A3
:103C1000FB690093192301228849F86800F090FAA3
:103C20000346002B01D0022304E1FB6893F83C30EB
:103C3000012B01D10223FDE0FB68012283F83C2027
:103C4000FB681B681B6803F00103012B07D0FB68AE
:103C50001B681A68FB681B6842F001021A60FB6867
:103C60001B681A68FB681B6822F400621A60FB6814
:103C7000242283F83D20FB6800221A64FB68704A06
:103C8000DA62FB681B681A68FB681B6842F4807282
:103C90001A60FB6900933B6800224FF00111F8683D
:103CA00000F04EFA0346002B0DD0FB681B681B6822
:103CB00003F48073B3F5807F03D1FB684FF4007287
:103CC0001A640323B6E07B89DBB21A46FB681B68E3
:103CD00002F0FE021A61FEF73DFFF861FB681B6807
:103CE0005B6903F00203022B0CBF01230023DBB24C
:103CF000FB75FB681B685B6903F48063B3F5806F39
:103D00000CBF01230023DBB2BB7525E0FEF722FFC9
:103D10000246FB69D31A3A689A4202D33B68002BE9
:103D200003D1FB68A02283F83D20FB681B685B6918
:103D300003F00203022B0CBF01230023DBB2FB754F
:103D4000FB681B685B6903F48063B3F5806F0CBF8D
:103D500001230023DBB2BB75FB6893F83D30DBB277
:103D6000A02B05D0FB7D002B02D1BB7D002BCDD03D
:103D7000FB68202283F83D20FB681B685B6903F029
:103D80000203022B29D1FB681B681A68FB681B68B9
:103D900042F400721A6000233B61FB681B685B6998
:103DA0003B61FB681B689B693B613B69FB69009356
:103DB000192301222149F86800F0C2F90346002BBB
:103DC00001D0012336E0FB68202283F83D20FB6808
:103DD000002283F83C2000232CE0FB681B681A6853
:103DE000FB681B6842F400721A60FB681B686FF482
:103DF00080625A61FB690093192301220F49F86818
:103E000000F09EF90346002B01D0012312E0BB69AC
:103E10000133BB61BA697B689A42FFF432AFFB6839
:103E2000202283F83D20FB68002283F83C200123F8
:103E300000E0022318462037BD4680BD0200100076
:103E40000000FFFF80B588B002AFF8600846114659
:103E50001A4603467B810B463B811346FB80FB6879
:103E60001B681A68FB681B6842F480721A607B6AE0
:103E700000933B6A00224FF00111F86800F060F9EE
:103E80000346002B0DD0FB681B681B6803F480738E
:103E9000B3F5807F03D1FB684FF400721A640323EB
:103EA0005FE07B89DBB21A46FB681B6802F0FE020A
:103EB0001A617B6A3A6A2D49F86800F098F903465E
:103EC000002B01D001234CE000237B61FB681B68C1
:103ED0005B697B61FB681B689B697B617B697A6AB4
:103EE000396AF86800F002FA0346002B0DD0FB682F
:103EF0001B6C042B07D1FB681B681A68FB681B68E6
:103F000042F400721A6001232BE0FB88012B05D1DB
:103F10003B89DAB2FB681B681A6121E03B891B0A06
:103F20009BB2DAB2FB681B681A617A6A396AF86870
:103F300000F0DCF90346002B0DD0FB681B6C042B52
:103F400007D1FB681B681A68FB681B6842F40072A3
:103F50001A60012305E03B89DAB2FB681B681A612D
:103F6000002318461837BD4680BD00BF020001007F
:103F700080B588B002AFF860084611461A4603467D
:103F80007B810B463B811346FB80FB681B681A68EC
:103F9000FB681B6842F480621A60FB681B681A6841
:103FA000FB681B6842F480721A607B6A00933B6A6C
:103FB00000224FF00111F86800F0C2F80346002B10
:103FC0000DD0FB681B681B6803F48073B3F5807F1A
:103FD00003D1FB684FF400721A640323AAE07B89C3
:103FE000DBB21A46FB681B6802F0FE021A617B6AAC
:103FF0003A6A5249F86800F0FAF80346002B01D0FB
:10400000012397E000237B61FB681B685B697B6190
:10401000FB681B689B697B617B697A6A396AF8680F
:1040200000F064F90346002B0DD0FB681B6C042BD9
:1040300007D1FB681B681A68FB681B6842F40072B2
:104040001A60012376E0FB88012B05D13B89DAB2A7
:10405000FB681B681A6121E03B891B0A9BB2DAB23C
:10406000FB681B681A617A6A396AF86800F03EF9E1
:104070000346002B0DD0FB681B6C042B07D1FB689B
:104080001B681A68FB681B6842F400721A600123FF
:1040900050E03B89DAB2FB681B681A617A6A396AB8
:1040A000F86800F023F90346002B0DD0FB681B6C69
:1040B000042B07D1FB681B681A68FB681B6842F475
:1040C00000721A60012335E0FB681B681A68FB6800
:1040D0001B6842F480721A607B6A00933B6A00227C
:1040E0004FF00111F86800F02BF80346002B0DD0BB
:1040F000FB681B681B6803F48073B3F5807F03D1F2
:10410000FB684FF400721A64032313E07B89DBB26F
:1041100043F00103DAB2FB681B681A617B6A3A6AF2
:104120000649F86800F063F80346002B01D001232C
:1041300000E0002318461837BD4680BD020001008C
:1041400080B584B000AFF860B9603B601346FB7186
:1041500025E03B68B3F1FF3F21D0FEF7FBFC0246B0
:10416000BB69D31A3A689A4202D33B68002B16D136
:10417000FB6800221A63FB68202283F83D20FB685D
:10418000002283F83E20FB681B6C43F02002FB6892
:104190001A64FB68002283F83C20012323E0BB68FB
:1041A0001B0CDBB2012B0DD1FB681B685B69DA438A
:1041B000BB6813409BB2002B0CBF01230023DBB272
:1041C0001A460CE0FB681B689B69DA43BB68134026
:1041D0009BB2002B0CBF01230023DBB21A46FB79F4
:1041E0009A42B6D0002318461037BD4680BD80B530
:1041F00084B000AFF860B9607A603B6051E0FB6862
:104200001B685B6903F48063B3F5806F23D1FB689F
:104210001B681A68FB681B6842F400721A60FB682E
:104220001B686FF480625A61FB6800221A63FB68A6
:10423000202283F83D20FB68002283F83E20FB68A3
:104240001B6C43F00402FB681A64FB68002283F8CD
:104250003C20012346E07B68B3F1FF3F21D0FEF70D
:1042600079FC02463B68D31A7A689A4202D37B688B
:10427000002B16D1FB6800221A63FB68202283F80A
:104280003D20FB68002283F83E20FB681B6C43F056
:104290002002FB681A64FB68002283F83C2001239B
:1042A00020E0BB681B0CDBB2012B0CD1FB681B6848
:1042B0005B69DA43BB6813409BB2002B14BF012338
:1042C0000023DBB20BE0FB681B689B69DA43BB6829
:1042D00013409BB2002B14BF01230023DBB2002B41
:1042E0008DD1002318461037BD4680BD80B584B0FF
:1042F00000AFF860B9607A602DE0F86800F0CEF8A1
:104300000346002B01D001232DE0BB68B3F1FF3F32
:1043100021D0FEF71FFC02467B68D31ABA689A4286
:1043200002D3BB68002B16D1FB6800221A63FB681E
:10433000202283F83D20FB68002283F83E20FB68A2
:104340001B6C43F02002FB681A64FB68002283F8B0
:104350003C20012307E0FB681B685B6903F08003D6
:10436000802BCAD1002318461037BD4680BD80B5CA
:1043700084B000AFF860B9607A602DE0F86800F0B2
:104380008DF80346002B01D001232DE0BB68B3F16B
:10439000FF3F21D0FEF7DEFB02467B68D31ABA68E6
:1043A0009A4202D3BB68002B16D1FB6800221A6325
:1043B000FB68202283F83D20FB68002283F83E2022
:1043C000FB681B6C43F02002FB681A64FB68002248
:1043D00083F83C20012307E0FB681B685B6903F05E
:1043E0000403042BCAD1002318461037BD4680BDF4
:1043F00080B584B000AFF860B9607A6042E0FB68D5
:104400001B685B6903F01003102B19D1FB681B6854
:104410006FF010025A61FB6800221A63FB682022C9
:1044200083F83D20FB68002283F83E20FB681A6C6D
:10443000FB681A64FB68002283F83C20012329E012
:10444000FEF788FB02467B68D31ABA689A4202D309
:10445000BB68002B16D1FB6800221A63FB68202280
:1044600083F83D20FB68002283F83E20FB681B6C2C
:1044700043F02002FB681A64FB68002283F83C20AA
:10448000012307E0FB681B685B6903F04003402BD6
:10449000B5D1002318461037BD4680BD80B483B027
:1044A00000AF78607B681B685B6903F48063B3F5D9
:1044B000806F1BD17B681B686FF480625A617B68D8
:1044C00000221A637B68202283F83D207B6800224B
:1044D00083F83E207B681B6C43F004027B681A64FF
:1044E0007B68002283F83C20012300E0002318466B
:1044F0000C37BD4680BC7047F0B58BB006AF786016
:104500007B68002B01D10123FDE07B6893F8A93281
:10451000DBB2002B06D17B68002283F8A8227868E2
:1045200007F0E6F97B68032283F8A9227B681B6801
:10453000184602F073FE7B681B683B607E686D4620
:1045400006F110040FCC0FC523682B60331D0ECB72
:10455000386802F03DFE0346002B05D07B6802223E
:1045600083F8A9220123CEE07B681B68002118464E
:1045700002F06EFE0023FB734CE0FB7B79685A1C53
:1045800013469B001344DB000B44013301221A70D5
:10459000FB7B79685A1C13469B001344DB000B44D9
:1045A000FA7B1A70FA7BFB7B98B2796813469B0002
:1045B0001344DB000B44363302461A80FB7B7968D8
:1045C0005A1C13469B001344DB000B4403330022A8
:1045D0001A70FA7B796813469B001344DB000B4486
:1045E000383300221A60FA7B796813469B00134423
:1045F000DB000B443C3300221A60FA7B79681346D7
:104600009B001344DB000B44403300221A60FB7B09
:104610000133FB73FA7B7B685B689A42ADD300235E
:10462000FB7344E0FA7B796813469B001344DB007C
:104630000B4403F2691300221A70FA7B796813465F
:104640009B001344DB000B4403F5B473FA7B1A7030
:10465000FA7B796813469B001344DB000B4403F29A
:104660006B1300221A70FA7B796813469B0013447F
:10467000DB000B4403F5BC7300221A60FA7B7968F7
:1046800013469B001344DB000B4403F5BE7300226A
:104690001A60FA7B796813469B001344DB000B44D5
:1046A00003F5C07300221A60FB7B0133FB73FA7BB6
:1046B0007B685B689A42B5D37B681B683B607E6809
:1046C0006D4606F110040FCC0FC523682B60331D17
:1046D0000ECB386802F0C8FD0346002B05D07B687E
:1046E000022283F8A92201230DE07B68002283F8CF
:1046F00024207B68012283F8A9227B681B68184666
:1047000005F07AFA002318461437BD46F0BD80B58F
:1047100082B000AF78607B6893F8A832012B01D19A
:10472000022316E07B68012283F8A8227B681B68BD
:10473000184602F05DFD0121786807F04CFB7B68AC
:104740001B68184605F04EFA7B68002283F8A82201
:10475000002318460837BD4680BD80B588B000AF3D
:1047600078607B681B68184605F050FA034603F42E
:104770000043B3F5004F02D1786800F05FFB7B681F
:104780001B68184605F042FA034603F48063B3F54C
:10479000806F12D17B681B68B3F844309AB27B6893
:1047A0001B6822F4806292B2A3F84420786807F074
:1047B0001AF90021786800F023F97B681B68184615
:1047C00005F024FA034603F48043B3F5804F0BD180
:1047D0007B681B68B3F844309AB27B681B6822F48C
:1047E000804292B2A3F844207B681B68184605F00B
:1047F0000DFA034603F40053B3F5005F0BD17B6859
:104800001B68B3F844309AB27B681B6822F40052EC
:1048100092B2A3F844207B681B68184605F0F6F9AD
:10482000034603F48053B3F5805F26D17B681B6891
:10483000B3F840309AB27B681B6822F0040292B24F
:10484000A3F840207B681B68B3F840309AB27B68BD
:104850001B6822F0080292B2A3F84020786807F0A3
:10486000FBF87B681B68B3F844309AB27B681B681E
:1048700022F4805292B2A3F844207B681B68184649
:1048800005F0C4F9034603F40063B3F5006F40F08C
:1048900082800023FB7710E07B681B681A46FB7F51
:1048A0009B001A44FB7F128892B25B0020333B448A
:1048B00023F8142CFB7F0133FB77FB7F072BEBD90D
:1048C0007B681B68B3F840309AB27B681B6842F083
:1048D000010292B2A3F840207B681B68B3F8403015
:1048E0009AB27B681B6822F0010292B2A3F84020C2
:1048F00000BF7B681B68B3F844309BB203F480634D
:10490000002BF6D07B681B68B3F844309AB27B6802
:104910001B6822F4806292B2A3F844200023FB7744
:104920000FE0FB7F7A6812681146FA7F92000A4412
:104930005B0020333B4433F8143C1380FB7F01338E
:10494000FB77FB7F072BECD97B681B68B3F8403003
:104950009AB27B681B6842F0080292B2A3F840202A
:104960007B681B68B3F844309AB27B681B6822F4FA
:10497000006292B2A3F844207B681B68B3F8403011
:104980009AB27B681B6842F0040292B2A3F84020FE
:10499000786807F047F87B681B68184605F036F919
:1049A000034603F40073B3F5007F0ED17B681B68E8
:1049B000B3F844309AB27B681B6822F4007292B25A
:1049C000A3F84420786807F000F87B681B68184655
:1049D00005F01CF9034603F48073B3F5807F0BD117
:1049E0007B681B68B3F844309AB27B681B6822F47A
:1049F000807292B2A3F8442000BF2037BD4680BD2C
:104A000080B582B000AF78600B46FB707B6893F88E
:104A1000A832012B01D1022313E07B68012283F825
:104A2000A8227B68FA7883F824207B681B68FA78D0
:104A30001146184605F0C3F87B68002283F8A822C7
:104A4000002318460837BD4680BD80B584B000AF4E
:104A50007860084611461A460346FB700B463B80B9
:104A60001346BB700023FB7297F90330002B0EDA5C
:104A7000FB7803F007035A1C13469B001344DB002A
:104A80007A681344FB60FB6801225A700EE0FB78E1
:104A900003F0070213469B001344DB0003F5B473D5
:104AA0007A681344FB60FB6800225A70FB7803F0BD
:104AB0000703DAB2FB681A703A88FB681A61FB6870
:104AC000BA78DA70FB685B78002B04D0FB681B783F
:104AD0009AB2FB68DA81BB78022B02D1FB68002214
:104AE0001A717B6893F8A832012B01D102230EE0E2
:104AF0007B68012283F8A8227B681B68F968184646
:104B000002F0D2FB7B68002283F8A822FB7A1846C9
:104B10001037BD4680BD80B584B000AF78600B46CD
:104B2000FB7097F90330002B0EDAFB7803F00703D4
:104B30005A1C13469B001344DB007A681344FB6045
:104B4000FB6801225A700EE0FB7803F0070213465F
:104B50009B001344DB0003F5B4737A681344FB60D5
:104B6000FB6800225A70FB7803F00703DAB2FB6897
:104B70001A707B6893F8A832012B01D102230EE052
:104B80007B68012283F8A8227B681B68F9681846B5
:104B900002F0F4FE7B68002283F8A8220023184666
:104BA0001037BD4680BD80B586B000AFF8607A6032
:104BB0003B600B46FB72FB7A03F0070213469B0037
:104BC0001344DB0003F5B473FA6813447B617B691B
:104BD0007A685A617B693A689A617B690022DA6176
:104BE0007B6900225A70FB7A03F00703DAB27B6913
:104BF0001A70FB7A03F00703002B06D1FB681B68D1
:104C00007969184603F0A6F805E0FB681B68796926
:104C1000184603F09FF8002318461837BD4680BD9C
:104C200080B483B000AF78600B46FB70FB7803F074
:104C30000702796813469B001344DB000B4403F51D
:104C4000C2731B6818460C37BD4680BC704780B5E0
:104C500086B000AFF8607A603B600B46FB72FB7A6F
:104C600003F007035A1C13469B001344DB00FA6849
:104C700013447B617B697A685A617B693A689A61FF
:104C80007B69012283F824207B693A681A627B6978
:104C90000022DA617B6901225A70FB7A03F0070374
:104CA000DAB27B691A70FB7A03F00703002B06D196
:104CB000FB681B687969184603F04CF805E0FB684F
:104CC0001B687969184603F045F800231846183721
:104CD000BD4680BD80B584B000AF78600B46FB70E8
:104CE000FB7803F007027B685B689A4201D90123D5
:104CF0004CE097F90330002B0EDAFB7803F0070342
:104D00005A1C13469B001344DB007A681344FB6073
:104D1000FB6801225A700CE0FA7813469B0013449A
:104D2000DB0003F5B4737A681344FB60FB68002270
:104D30005A70FB6801229A70FB7803F00703DAB21D
:104D4000FB681A707B6893F8A832012B01D102230B
:104D50001CE07B68012283F8A8227B681B68F96845
:104D6000184604F02FFEFB7803F00703002B08D150
:104D70007B681A687B6803F52C731946104604F0AB
:104D800054FF7B68002283F8A822002318461037BE
:104D9000BD4680BD80B584B000AF78600B46FB7027
:104DA000FB7803F00F027B685B689A4201D901230C
:104DB00040E097F90330002B0EDAFB7803F007038D
:104DC0005A1C13469B001344DB007A681344FB60B3
:104DD000FB6801225A700EE0FB7803F007021346CD
:104DE0009B001344DB0003F5B4737A681344FB6043
:104DF000FB6800225A70FB6800229A70FB7803F06F
:104E00000703DAB2FB681A707B6893F8A832012BAB
:104E100001D102230EE07B68012283F8A8227B687F
:104E20001B68F968184604F01DFE7B68002283F8B1
:104E3000A822002318461037BD4680BD80B58EB02D
:104E400000AF7860ECE27B681B68B3F84430FB8508
:104E5000FB8DDBB203F00F0387F82D3097F82D3070
:104E6000002B40F06181FB8D03F01003002B52D129
:104E70007B681B681B889BB223F4E14323F070031B
:104E8000FB817B681A68FB896FEA43436FEA5343EF
:104E90009BB213807B6828337B627B681B68B3F806
:104EA00050309BB21A467B6A1B78DB0013440233F6
:104EB0005B007A681268134403F580631B88C3F3B0
:104EC00009027B6ADA617B6A5A697B6ADB691A4488
:104ED0007B6A5A610021786806F05DFD7B6893F873
:104EE0002430DBB2002B00F09B827B6A9B69002B95
:104EF00040F096827B6893F82430DBB263F07F0346
:104F0000DAB27B681B6892B2A3F84C207B6800225F
:104F100083F8242084E27B6803F5B4737B627B68AA
:104F20001B681B887B857B8D03F40063002B34D0CA
:104F30007B681B68B3F850309BB21A467B6A1B78BB
:104F4000DB00134406335B007A681268134403F5F0
:104F500080631B88C3F309027B6ADA617B68186887
:104F60007B6803F52C717B6ADA887B6ADB699BB20C
:104F700004F0ABFE7B681B681B889AB240F68F7307
:104F800013403B827B681B683A8A42F0800292B2EF
:104F90001A80786806F0D2FC42E2B7F92A30002B7A
:104FA00080F23E827B681B681B889AB240F68F7342
:104FB0001340BB837B681B68BA8B42F0800292B2BD
:104FC0001A807B681B68B3F850309BB21A467B6A24
:104FD0001B78DB00134406335B007A6812681344C5
:104FE00003F580631B88C3F309027B6ADA617B6A7D
:104FF000DB69002B19D07B6A5B69002B15D07B68BD
:1050000018687B6A59697B6ADA887B6ADB699BB2BC
:1050100004F05BFE7B6A5A697B6ADB691A447B6A2F
:105020005A610021786806F09BFC7B681B681B882E
:105030009BB203F40063002B40F0F2817B681B6895
:10504000BB617B681B68B3F850309BB21A46BB69E2
:105050001344BB61BB6903F20C437B617B6A1B6930
:10506000002B12D17B691B889BB223F4F8439AB2C0
:105070007B691A807B691B889BB26FEA43436FEAA6
:1050800053439AB27B691A802FE07B6A1B693E2BDF
:1050900013D87B6A1B695B083B637B6A1B6903F05F
:1050A0000103002B02D03B6B01333B633B6B9BB294
:1050B0009B029AB27B691A8017E07B6A1B695B09C5
:1050C0003B637B6A1B6903F01F03002B02D13B6B20
:1050D000013B3B633B6B9BB29B029BB26FEA43433A
:1050E0006FEA53439AB27B691A807B681B681B88FE
:1050F0009BB223F4804323F070037B827B8A83F48A
:1051000080537B827B8A83F400537B827B681A689E
:105110007B8A43F07F4343F47F0343F4004343F02F
:1051200080039BB213807BE17B681B681A4697F86B
:105130002D309B0013441B887B85B7F92A30002B48
:1051400080F2EA807B681B681A4697F82D309B0036
:1051500013441B889AB240F68F7313403B857B68DB
:105160001B681A4697F82D309B0013443A8D42F085
:10517000800292B21A8097F82D2013469B001344A8
:10518000DB0003F5B4737A6813447B627B6A1B7B94
:10519000002B22D17B681B68B3F850309BB21A46B3
:1051A0007B6A1B78DB00134406335B007A68126865
:1051B000134403F580631B88C3F30903FB86FB8E4E
:1051C000002B00F087807B6818687B6A59697B6ACE
:1051D000DA88FB8E04F079FD7CE07B6ADB78022BB9
:1051E00008D17B8D1A46796A786800F027F9034662
:1051F000FB866FE07B681B681A467B6A1B789B0006
:1052000013441B889BB223F4E04323F070037B8498
:105210007B681B681A467B6A1B789B001A447B8C50
:1052200043F07F4343F47F0343F4004343F0C00360
:105230009BB213807B681B681A467B6A1B789B00B5
:1052400013441B889BB203F48043002B21D07B685E
:105250001B68B3F850309BB21A467B6A1B78DB00A0
:10526000134402335B007A681268134403F58063C9
:105270001B88C3F30903FB86FB8E002B2AD07B68B7
:1052800018687B6A59697B6A1A89FB8E04F01DFDD8
:1052900020E07B681B68B3F850309BB21A467B6AEB
:1052A0001B78DB00134406335B007A6812681344F2
:1052B00003F580631B88C3F30903FB86FB8E002B79
:1052C00008D07B6818687B6A59697B6A5A89FB8EAB
:1052D00004F0FBFC7B6ADA69FB8E1A447B6ADA61B4
:1052E0007B6A5A69FB8E1A447B6A5A617B6A9B69A6
:1052F000002B04D0FA8E7B6A1B699A4206D27B6A25
:105300001B781946786806F02BFB05E07B681B6864
:10531000796A184602F01EFD7B8D03F08003002B96
:105320007ED097F82D305A1C13469B001344DB00A7
:105330007A6813447B627B681B681A4697F82D30A5
:105340009B0013441B889BB223F4E14323F07003BA
:105350003B847B681B681A4697F82D309B001A44E3
:105360003B8C6FEA43436FEA53439BB213807B6AE3
:10537000DB78032B0CD07B6ADB78002B08D07B6AB0
:10538000DB78022B46D17B8D03F48073002B41D157
:105390007B681B68B3F850309BB21A467B6A1B7857
:1053A000DB00134402335B007A681268134403F590
:1053B00080631B88C3F30903FB837B6A9A69FB8BB9
:1053C0009A4206D97B6A9A69FB8BD21A7B6A9A61E8
:1053D00002E07B6A00229A617B6A9B69002B06D1FE
:1053E0007B6A1B781946786806F0D5FA18E07B6A64
:1053F0005A69FB8B1A447B6A5A617B6ADA69FB8BB8
:105400001A447B6ADA617B681B68796A184602F085
:10541000A1FC05E07B8D1A46796A786800F01BF9DB
:105420007B681B68B3F844309BB21BB2002BFFF6BD
:105430000AAD002318463837BD4680BD80B588B018
:1054400000AFF860B9601346FB80FB8803F480432B
:10545000002B7ED0FB681B68B3F850309BB21A4615
:10546000BB681B78DB00134402335B00FA681268E8
:10547000134403F580631B88C3F309037B83BB6874
:105480009A697B8B9A4206D3BB689A697B8BD21A46
:10549000BB689A6102E0BB6800229A61BB689B69A5
:1054A000002B23D1FB681B681A46BB681B789B0046
:1054B00013441B889BB223F4804323F070033B8387
:1054C0003B8B83F400533B83FB681B681A46BB6825
:1054D0001B789B001A443B8B43F07F4343F47F03CC
:1054E00043F4004343F080039BB21380FB8803F036
:1054F0004003002B1FD0FB681B681A46BB681B7853
:105500009B0013441B889BB223F4E04323F07003F9
:10551000FB82FB681B681A46BB681B789B001A4419
:10552000FB8A43F07F4343F47F0343F4004343F09B
:10553000C0039BB213807B8B002B00F08780FB683D
:105540001868BB685969BB681A897B8B04F0BDFB7E
:105550007CE0FB681B68B3F850309BB21A46BB680E
:105560001B78DB00134406335B00FA6812681344AF
:1055700003F580631B88C3F309037B83BB689A69C7
:105580007B8B9A4206D3BB689A697B8BD21ABB6825
:105590009A6102E0BB6800229A61BB689B69002B9C
:1055A00023D1FB681B681A46BB681B789B00134419
:1055B0001B889BB223F4804323F07003FB83FB8B97
:1055C00083F40053FB83FB681B681A46BB681B7897
:1055D0009B001A44FB8B43F07F4343F47F0343F467
:1055E000004343F080039BB21380FB8803F0400329
:1055F000002B1FD1FB681B681A46BB681B789B00F9
:1056000013441B889BB223F4E04323F07003BB8355
:10561000FB681B681A46BB681B789B001A44BB8B4F
:1056200043F07F4343F47F0343F4004343F0C0035C
:105630009BB213807B8B002B08D0FB681868BB687B
:105640005969BB685A897B8B04F03FFB7B8B1846FA
:105650002037BD4680BD80B5A2B000AFF860B9600C
:105660001346FB80FB8803F04003002B00F0C7814A
:10567000FB681B68B3F850309BB21A46BB681B78B6
:10568000DB00134402335B00FA681268134403F52D
:1056900080631B88C3F30903A7F84E30BB689A697F
:1056A000B7F84E309A4207D9BB689A69B7F84E30BE
:1056B000D21ABB689A6102E0BB6800229A61BB689B
:1056C0009B69002B40F0B980BB685B78002B26D12A
:1056D000FB681B68BB62FB681B68B3F850309BB269
:1056E0001A46BB6A1344BB62BB681B781A01BB6ACB
:1056F000134403F204437B627B6A1B889BB223F44E
:10570000F8439AB27B6A1A807B6A1B889BB26FEA65
:1057100043436FEA53439AB27B6A1A801AE0BB682C
:105720005B78012B16D1FB681B683B63FB681B6829
:10573000B3F850309BB21A463B6B13443B63BB68D3
:105740001B781A013B6B134403F20443FB62FB6AB0
:1057500000221A80FB681B683B62BB685B78002BE9
:1057600026D1FB681B68BB61FB681B68B3F850302F
:105770009BB21A46BB691344BB61BB681B781A0114
:10578000BB69134403F20C437B617B691B889BB2AA
:1057900023F4F8439AB27B691A807B691B889BB219
:1057A0006FEA43436FEA53439AB27B691A8017E06A
:1057B000BB685B78012B13D1FB681B68B3F85030D2
:1057C0009BB21A463B6A13443B62BB681B781A01C2
:1057D0003B6A134403F20C43FB61FB6900221A800D
:1057E000BB681B781946F86806F0D5F8FB8803F407
:1057F0008043002B00F0D482FB681B681A46BB680C
:105800001B789B0013441B889BB223F4E04323F0D6
:1058100070037B82FB681B681A46BB681B789B0081
:105820001A447B8A43F07F4343F47F0343F44043AD
:1058300043F080039BB21380B2E2FB8803F4804301
:10584000002B21D0FB681B681A46BB681B789B00A5
:1058500013441B889BB223F4E04323F07003A7F8A2
:105860004430FB681B681A46BB681B789B001A44CF
:10587000B7F8443043F07F4343F47F0343F440439D
:1058800043F080039BB21380BB6893F82430012B54
:1058900040F08682BB685A69B7F84E301A44BB683C
:1058A0005A61BB68DA69B7F84E301A44BB68DA61EE
:1058B000BB681A6ABB681B699A4209D3BB681B693B
:1058C0003B65BB681A6A3B6DD21ABB681A6215E069
:1058D000BB681B6A002B07D1B7F84E303B65BB682D
:1058E000002283F8242009E0BB68002283F82420EA
:1058F000BB681B6A3B65BB6800221A62BB685B78A9
:10590000002B55D1FB681B68BB63FB681B68B3F8B1
:1059100050309BB21A46BB6B1344BB63BB681B7809
:105920001A01BB6B134403F204437B633B6D002BF2
:1059300012D17B6B1B889BB223F4F8439AB27B6B2A
:105940001A807B6B1B889BB26FEA43436FEA534319
:105950009AB27B6B1A8047E03B6D3E2B11D83B6DB2
:105960005B08BB643B6D03F00103002B02D0BB6CF2
:105970000133BB64BB6C9BB29B029AB27B6B1A80F7
:1059800032E03B6D5B09BB643B6D03F01F03002BF2
:1059900002D1BB6C013BBB64BB6C9BB29B029BB254
:1059A0006FEA43436FEA53439AB27B6B1A801BE062
:1059B000BB685B78012B17D1FB681B683B64FB68F5
:1059C0001B68B3F850309BB21A463B6C13443B64DF
:1059D000BB681B781A013B6C134403F20443FB635E
:1059E0003B6D9AB2FB6B1A80FB681868BB685969FB
:1059F000BB681A893B6D9BB204F022F9D0E1FB68C9
:105A00001B68B3F850309BB21A46BB681B78DB00AA
:105A1000134406335B00FA681268134403F580638D
:105A20001B88C3F30903A7F84E30BB689A69B7F81F
:105A30004E309A4207D3BB689A69B7F84E30D21AF3
:105A4000BB689A6102E0BB6800229A61BB689B69EF
:105A5000002B40F0C480BB685B78002B26D1FB682C
:105A60001B68FB66FB681B68B3F850309BB21A4694
:105A7000FB6E1344FB66BB681B781A01FB6E134474
:105A800003F20443BB66BB6E1B889BB223F4F8434E
:105A90009AB2BB6E1A80BB6E1B889BB26FEA4343FF
:105AA0006FEA53439AB2BB6E1A801AE0BB685B7808
:105AB000012B16D1FB681B687B67FB681B68B3F87A
:105AC00050309BB21A467B6F13447B67BB681B78D0
:105AD0001A017B6F134403F204433B673B6F0022C0
